{
  "contractName": "StakingContract",
  "abi": [
    {
      "inputs": [
        {
          "internalType": "address",
          "name": "owner",
          "type": "address"
        }
      ],
      "stateMutability": "nonpayable",
      "type": "constructor"
    },
    {
      "anonymous": false,
      "inputs": [
        {
          "indexed": true,
          "internalType": "address",
          "name": "owner",
          "type": "address"
        },
        {
          "indexed": true,
          "internalType": "address",
          "name": "spender",
          "type": "address"
        },
        {
          "indexed": false,
          "internalType": "uint256",
          "name": "value",
          "type": "uint256"
        }
      ],
      "name": "Approval",
      "type": "event"
    },
    {
      "anonymous": false,
      "inputs": [
        {
          "indexed": true,
          "internalType": "address",
          "name": "previousOwner",
          "type": "address"
        },
        {
          "indexed": true,
          "internalType": "address",
          "name": "newOwner",
          "type": "address"
        }
      ],
      "name": "OwnershipTransferred",
      "type": "event"
    },
    {
      "anonymous": false,
      "inputs": [
        {
          "indexed": true,
          "internalType": "address",
          "name": "from",
          "type": "address"
        },
        {
          "indexed": true,
          "internalType": "address",
          "name": "to",
          "type": "address"
        },
        {
          "indexed": false,
          "internalType": "uint256",
          "name": "value",
          "type": "uint256"
        }
      ],
      "name": "Transfer",
      "type": "event"
    },
    {
      "inputs": [
        {
          "internalType": "address",
          "name": "owner",
          "type": "address"
        },
        {
          "internalType": "address",
          "name": "spender",
          "type": "address"
        }
      ],
      "name": "allowance",
      "outputs": [
        {
          "internalType": "uint256",
          "name": "",
          "type": "uint256"
        }
      ],
      "stateMutability": "view",
      "type": "function",
      "constant": true
    },
    {
      "inputs": [
        {
          "internalType": "address",
          "name": "spender",
          "type": "address"
        },
        {
          "internalType": "uint256",
          "name": "amount",
          "type": "uint256"
        }
      ],
      "name": "approve",
      "outputs": [
        {
          "internalType": "bool",
          "name": "",
          "type": "bool"
        }
      ],
      "stateMutability": "nonpayable",
      "type": "function"
    },
    {
      "inputs": [
        {
          "internalType": "address",
          "name": "account",
          "type": "address"
        }
      ],
      "name": "balanceOf",
      "outputs": [
        {
          "internalType": "uint256",
          "name": "",
          "type": "uint256"
        }
      ],
      "stateMutability": "view",
      "type": "function",
      "constant": true
    },
    {
      "inputs": [],
      "name": "decimals",
      "outputs": [
        {
          "internalType": "uint8",
          "name": "",
          "type": "uint8"
        }
      ],
      "stateMutability": "view",
      "type": "function",
      "constant": true
    },
    {
      "inputs": [
        {
          "internalType": "address",
          "name": "spender",
          "type": "address"
        },
        {
          "internalType": "uint256",
          "name": "subtractedValue",
          "type": "uint256"
        }
      ],
      "name": "decreaseAllowance",
      "outputs": [
        {
          "internalType": "bool",
          "name": "",
          "type": "bool"
        }
      ],
      "stateMutability": "nonpayable",
      "type": "function"
    },
    {
      "inputs": [
        {
          "internalType": "address",
          "name": "spender",
          "type": "address"
        },
        {
          "internalType": "uint256",
          "name": "addedValue",
          "type": "uint256"
        }
      ],
      "name": "increaseAllowance",
      "outputs": [
        {
          "internalType": "bool",
          "name": "",
          "type": "bool"
        }
      ],
      "stateMutability": "nonpayable",
      "type": "function"
    },
    {
      "inputs": [],
      "name": "name",
      "outputs": [
        {
          "internalType": "string",
          "name": "",
          "type": "string"
        }
      ],
      "stateMutability": "view",
      "type": "function",
      "constant": true
    },
    {
      "inputs": [],
      "name": "owner",
      "outputs": [
        {
          "internalType": "address",
          "name": "",
          "type": "address"
        }
      ],
      "stateMutability": "view",
      "type": "function",
      "constant": true
    },
    {
      "inputs": [],
      "name": "renounceOwnership",
      "outputs": [],
      "stateMutability": "nonpayable",
      "type": "function"
    },
    {
      "inputs": [],
      "name": "symbol",
      "outputs": [
        {
          "internalType": "string",
          "name": "",
          "type": "string"
        }
      ],
      "stateMutability": "view",
      "type": "function",
      "constant": true
    },
    {
      "inputs": [],
      "name": "totalSupply",
      "outputs": [
        {
          "internalType": "uint256",
          "name": "",
          "type": "uint256"
        }
      ],
      "stateMutability": "view",
      "type": "function",
      "constant": true
    },
    {
      "inputs": [
        {
          "internalType": "address",
          "name": "recipient",
          "type": "address"
        },
        {
          "internalType": "uint256",
          "name": "amount",
          "type": "uint256"
        }
      ],
      "name": "transfer",
      "outputs": [
        {
          "internalType": "bool",
          "name": "",
          "type": "bool"
        }
      ],
      "stateMutability": "nonpayable",
      "type": "function"
    },
    {
      "inputs": [
        {
          "internalType": "address",
          "name": "sender",
          "type": "address"
        },
        {
          "internalType": "address",
          "name": "recipient",
          "type": "address"
        },
        {
          "internalType": "uint256",
          "name": "amount",
          "type": "uint256"
        }
      ],
      "name": "transferFrom",
      "outputs": [
        {
          "internalType": "bool",
          "name": "",
          "type": "bool"
        }
      ],
      "stateMutability": "nonpayable",
      "type": "function"
    },
    {
      "inputs": [
        {
          "internalType": "address",
          "name": "newOwner",
          "type": "address"
        }
      ],
      "name": "transferOwnership",
      "outputs": [],
      "stateMutability": "nonpayable",
      "type": "function"
    },
    {
      "inputs": [
        {
          "internalType": "address",
          "name": "add",
          "type": "address"
        }
      ],
      "name": "isStakeHolder",
      "outputs": [
        {
          "internalType": "bool",
          "name": "",
          "type": "bool"
        },
        {
          "internalType": "uint256",
          "name": "",
          "type": "uint256"
        }
      ],
      "stateMutability": "view",
      "type": "function",
      "constant": true
    },
    {
      "inputs": [
        {
          "internalType": "address",
          "name": "stakeholder",
          "type": "address"
        }
      ],
      "name": "addStakeHolder",
      "outputs": [],
      "stateMutability": "nonpayable",
      "type": "function"
    },
    {
      "inputs": [
        {
          "internalType": "address",
          "name": "stakeholder",
          "type": "address"
        }
      ],
      "name": "removeStakeHolder",
      "outputs": [],
      "stateMutability": "nonpayable",
      "type": "function"
    },
    {
      "inputs": [
        {
          "internalType": "address",
          "name": "stakeholder",
          "type": "address"
        }
      ],
      "name": "getStakeOfHolder",
      "outputs": [
        {
          "internalType": "uint256",
          "name": "",
          "type": "uint256"
        }
      ],
      "stateMutability": "view",
      "type": "function",
      "constant": true
    },
    {
      "inputs": [],
      "name": "totalStakes",
      "outputs": [
        {
          "internalType": "uint256",
          "name": "",
          "type": "uint256"
        }
      ],
      "stateMutability": "view",
      "type": "function",
      "constant": true
    },
    {
      "inputs": [
        {
          "internalType": "uint256",
          "name": "stake",
          "type": "uint256"
        }
      ],
      "name": "createStake",
      "outputs": [
        {
          "internalType": "bool",
          "name": "",
          "type": "bool"
        }
      ],
      "stateMutability": "nonpayable",
      "type": "function"
    },
    {
      "inputs": [
        {
          "internalType": "uint256",
          "name": "stake",
          "type": "uint256"
        }
      ],
      "name": "removeStake",
      "outputs": [],
      "stateMutability": "nonpayable",
      "type": "function"
    },
    {
      "inputs": [
        {
          "internalType": "address",
          "name": "holder",
          "type": "address"
        }
      ],
      "name": "getRewardOf",
      "outputs": [
        {
          "internalType": "uint256",
          "name": "",
          "type": "uint256"
        }
      ],
      "stateMutability": "view",
      "type": "function",
      "constant": true
    },
    {
      "inputs": [],
      "name": "totalRewards",
      "outputs": [
        {
          "internalType": "uint256",
          "name": "",
          "type": "uint256"
        }
      ],
      "stateMutability": "view",
      "type": "function",
      "constant": true
    },
    {
      "inputs": [
        {
          "internalType": "address",
          "name": "stakeholder",
          "type": "address"
        }
      ],
      "name": "calculateReward",
      "outputs": [
        {
          "internalType": "uint256",
          "name": "",
          "type": "uint256"
        }
      ],
      "stateMutability": "view",
      "type": "function",
      "constant": true
    },
    {
      "inputs": [],
      "name": "distributeRewards",
      "outputs": [],
      "stateMutability": "nonpayable",
      "type": "function"
    },
    {
      "inputs": [],
      "name": "getReward",
      "outputs": [],
      "stateMutability": "nonpayable",
      "type": "function"
    },
    {
      "inputs": [],
      "name": "withdrawRewards",
      "outputs": [],
      "stateMutability": "nonpayable",
      "type": "function"
    }
  ],
  "bytecode": "0x60806040523480156200001157600080fd5b5060405162002fcc38038062002fcc833981810160405281019062000037919062000480565b6040518060400160405280600481526020017f54455354000000000000000000000000000000000000000000000000000000008152506040518060400160405280600381526020017f54535400000000000000000000000000000000000000000000000000000000008152508160039080519060200190620000bb92919062000366565b508060049080519060200190620000d492919062000366565b505050620000f7620000eb6200011560201b60201c565b6200011d60201b60201c565b6200010e8164e8d4a51000620001e360201b60201c565b506200065e565b600033905090565b6000600560009054906101000a900473ffffffffffffffffffffffffffffffffffffffff16905081600560006101000a81548173ffffffffffffffffffffffffffffffffffffffff021916908373ffffffffffffffffffffffffffffffffffffffff1602179055508173ffffffffffffffffffffffffffffffffffffffff168173ffffffffffffffffffffffffffffffffffffffff167f8be0079c531659141344cd1fd0a4f28419497f9722a3daafe3b4186f6b6457e060405160405180910390a35050565b600073ffffffffffffffffffffffffffffffffffffffff168273ffffffffffffffffffffffffffffffffffffffff16141562000256576040517f08c379a00000000000000000000000000000000000000000000000000000000081526004016200024d9062000513565b60405180910390fd5b6200026a600083836200035c60201b60201c565b80600260008282546200027e91906200056e565b92505081905550806000808473ffffffffffffffffffffffffffffffffffffffff1673ffffffffffffffffffffffffffffffffffffffff1681526020019081526020016000206000828254620002d591906200056e565b925050819055508173ffffffffffffffffffffffffffffffffffffffff16600073ffffffffffffffffffffffffffffffffffffffff167fddf252ad1be2c89b69c2b068fc378daa952ba7f163c4a11628f55a4df523b3ef836040516200033c9190620005dc565b60405180910390a362000358600083836200036160201b60201c565b5050565b505050565b505050565b828054620003749062000628565b90600052602060002090601f016020900481019282620003985760008555620003e4565b82601f10620003b357805160ff1916838001178555620003e4565b82800160010185558215620003e4579182015b82811115620003e3578251825591602001919060010190620003c6565b5b509050620003f39190620003f7565b5090565b5b8082111562000412576000816000905550600101620003f8565b5090565b600080fd5b600073ffffffffffffffffffffffffffffffffffffffff82169050919050565b600062000448826200041b565b9050919050565b6200045a816200043b565b81146200046657600080fd5b50565b6000815190506200047a816200044f565b92915050565b60006020828403121562000499576200049862000416565b5b6000620004a98482850162000469565b91505092915050565b600082825260208201905092915050565b7f45524332303a206d696e7420746f20746865207a65726f206164647265737300600082015250565b6000620004fb601f83620004b2565b91506200050882620004c3565b602082019050919050565b600060208201905081810360008301526200052e81620004ec565b9050919050565b6000819050919050565b7f4e487b7100000000000000000000000000000000000000000000000000000000600052601160045260246000fd5b60006200057b8262000535565b9150620005888362000535565b9250827fffffffffffffffffffffffffffffffffffffffffffffffffffffffffffffffff03821115620005c057620005bf6200053f565b5b828201905092915050565b620005d68162000535565b82525050565b6000602082019050620005f36000830184620005cb565b92915050565b7f4e487b7100000000000000000000000000000000000000000000000000000000600052602260045260246000fd5b600060028204905060018216806200064157607f821691505b60208210811415620006585762000657620005f9565b5b50919050565b61295e806200066e6000396000f3fe608060405234801561001057600080fd5b50600436106101a95760003560e01c80636f4a2cd0116100f9578063a457c2d711610097578063c7b8981c11610071578063c7b8981c146104d3578063d82e3962146104dd578063dd62ed3e1461050d578063f2fde38b1461053d576101a9565b8063a457c2d714610455578063a9059cbb14610485578063bf9befb1146104b5576101a9565b80638da5cb5b116100d35780638da5cb5b146103cd5780639313d505146103eb578063939624ab1461041b57806395d89b4114610437576101a9565b80636f4a2cd01461038957806370a0823114610393578063715018a6146103c3576101a9565b806323b872dd116101665780633d18b912116101405780633d18b9121461030257806345f412b01461030c5780634e0138f4146103285780636351215914610358576101a9565b806323b872dd14610284578063313ce567146102b457806339509351146102d2576101a9565b806306fdde03146101ae578063095ea7b3146101cc5780630e15561a146101fc57806311a76f371461021a57806318160ddd146102365780631bf6ddae14610254575b600080fd5b6101b6610559565b6040516101c39190611daf565b60405180910390f35b6101e660048036038101906101e19190611e6a565b6105eb565b6040516101f39190611ec5565b60405180910390f35b610204610609565b6040516102119190611eef565b60405180910390f35b610234600480360381019061022f9190611f0a565b6106c6565b005b61023e610741565b60405161024b9190611eef565b60405180910390f35b61026e60048036038101906102699190611f37565b61074b565b60405161027b9190611ec5565b60405180910390f35b61029e60048036038101906102999190611f64565b610814565b6040516102ab9190611ec5565b60405180910390f35b6102bc61090c565b6040516102c99190611fd3565b60405180910390f35b6102ec60048036038101906102e79190611e6a565b610915565b6040516102f99190611ec5565b60405180910390f35b61030a6109c1565b005b61032660048036038101906103219190611f0a565b610a57565b005b610342600480360381019061033d9190611f0a565b610b66565b60405161034f9190611eef565b60405180910390f35b610372600480360381019061036d9190611f0a565b610baf565b604051610380929190611fee565b60405180910390f35b610391610c62565b005b6103ad60048036038101906103a89190611f0a565b610deb565b6040516103ba9190611eef565b60405180910390f35b6103cb610e33565b005b6103d5610ebb565b6040516103e29190612026565b60405180910390f35b61040560048036038101906104009190611f0a565b610ee5565b6040516104129190611eef565b60405180910390f35b61043560048036038101906104309190611f37565b610f2e565b005b61043f610fef565b60405161044c9190611daf565b60405180910390f35b61046f600480360381019061046a9190611e6a565b611081565b60405161047c9190611ec5565b60405180910390f35b61049f600480360381019061049a9190611e6a565b61116c565b6040516104ac9190611ec5565b60405180910390f35b6104bd61118a565b6040516104ca9190611eef565b60405180910390f35b6104db611247565b005b6104f760048036038101906104f29190611f0a565b6112dd565b6040516105049190611eef565b60405180910390f35b61052760048036038101906105229190612041565b611326565b6040516105349190611eef565b60405180910390f35b61055760048036038101906105529190611f0a565b6113ad565b005b606060038054610568906120b0565b80601f0160208091040260200160405190810160405280929190818152602001828054610594906120b0565b80156105e15780601f106105b6576101008083540402835291602001916105e1565b820191906000526020600020905b8154815290600101906020018083116105c457829003601f168201915b5050505050905090565b60006105ff6105f86114a5565b84846114ad565b6001905092915050565b6000806000905060005b6006805490508110156106be576008600060068381548110610638576106376120e2565b5b9060005260206000200160009054906101000a900473ffffffffffffffffffffffffffffffffffffffff1673ffffffffffffffffffffffffffffffffffffffff1673ffffffffffffffffffffffffffffffffffffffff16815260200190815260200160002054826106a99190612140565b915080806106b690612196565b915050610613565b508091505090565b60006106d182610baf565b5090508061073d576006829080600181540180825580915050600190039060005260206000200160009091909190916101000a81548173ffffffffffffffffffffffffffffffffffffffff021916908373ffffffffffffffffffffffffffffffffffffffff1602179055505b5050565b6000600254905090565b60006107573383611678565b6000600760003373ffffffffffffffffffffffffffffffffffffffff1673ffffffffffffffffffffffffffffffffffffffff1681526020019081526020016000205414156107a9576107a8336106c6565b5b6002826107b691906121df565b600760003373ffffffffffffffffffffffffffffffffffffffff1673ffffffffffffffffffffffffffffffffffffffff16815260200190815260200160002060008282546108049190612140565b9250508190555060019050919050565b600061082184848461184f565b6000600160008673ffffffffffffffffffffffffffffffffffffffff1673ffffffffffffffffffffffffffffffffffffffff168152602001908152602001600020600061086c6114a5565b73ffffffffffffffffffffffffffffffffffffffff1673ffffffffffffffffffffffffffffffffffffffff168152602001908152602001600020549050828110156108ec576040517f08c379a00000000000000000000000000000000000000000000000000000000081526004016108e3906122ab565b60405180910390fd5b610900856108f86114a5565b8584036114ad565b60019150509392505050565b60006012905090565b60006109b76109226114a5565b8484600160006109306114a5565b73ffffffffffffffffffffffffffffffffffffffff1673ffffffffffffffffffffffffffffffffffffffff16815260200190815260200160002060008873ffffffffffffffffffffffffffffffffffffffff1673ffffffffffffffffffffffffffffffffffffffff168152602001908152602001600020546109b29190612140565b6114ad565b6001905092915050565b6000600860003373ffffffffffffffffffffffffffffffffffffffff1673ffffffffffffffffffffffffffffffffffffffff1681526020019081526020016000205490506000600860003373ffffffffffffffffffffffffffffffffffffffff1673ffffffffffffffffffffffffffffffffffffffff16815260200190815260200160002081905550610a543382611ad0565b50565b600080610a6383610baf565b915091508115610b615760066001600680549050610a8191906122cb565b81548110610a9257610a916120e2565b5b9060005260206000200160009054906101000a900473ffffffffffffffffffffffffffffffffffffffff1660068281548110610ad157610ad06120e2565b5b9060005260206000200160006101000a81548173ffffffffffffffffffffffffffffffffffffffff021916908373ffffffffffffffffffffffffffffffffffffffff1602179055506006805480610b2b57610b2a6122ff565b5b6001900381819060005260206000200160006101000a81549073ffffffffffffffffffffffffffffffffffffffff021916905590555b505050565b6000600760008373ffffffffffffffffffffffffffffffffffffffff1673ffffffffffffffffffffffffffffffffffffffff168152602001908152602001600020549050919050565b60008060005b600680549050811015610c54578373ffffffffffffffffffffffffffffffffffffffff1660068281548110610bed57610bec6120e2565b5b9060005260206000200160009054906101000a900473ffffffffffffffffffffffffffffffffffffffff1673ffffffffffffffffffffffffffffffffffffffff161415610c41576001819250925050610c5d565b8080610c4c90612196565b915050610bb5565b50600080915091505b915091565b610c6a6114a5565b73ffffffffffffffffffffffffffffffffffffffff16610c88610ebb565b73ffffffffffffffffffffffffffffffffffffffff1614610cde576040517f08c379a0000000000000000000000000000000000000000000000000000000008152600401610cd59061237a565b60405180910390fd5b60005b600680549050811015610de857600060068281548110610d0457610d036120e2565b5b9060005260206000200160009054906101000a900473ffffffffffffffffffffffffffffffffffffffff1690506000610d3c826112dd565b9050610d9081600860008573ffffffffffffffffffffffffffffffffffffffff1673ffffffffffffffffffffffffffffffffffffffff16815260200190815260200160002054611c3090919063ffffffff16565b600860008473ffffffffffffffffffffffffffffffffffffffff1673ffffffffffffffffffffffffffffffffffffffff1681526020019081526020016000208190555050508080610de090612196565b915050610ce1565b50565b60008060008373ffffffffffffffffffffffffffffffffffffffff1673ffffffffffffffffffffffffffffffffffffffff168152602001908152602001600020549050919050565b610e3b6114a5565b73ffffffffffffffffffffffffffffffffffffffff16610e59610ebb565b73ffffffffffffffffffffffffffffffffffffffff1614610eaf576040517f08c379a0000000000000000000000000000000000000000000000000000000008152600401610ea69061237a565b60405180910390fd5b610eb96000611c46565b565b6000600560009054906101000a900473ffffffffffffffffffffffffffffffffffffffff16905090565b6000600860008373ffffffffffffffffffffffffffffffffffffffff1673ffffffffffffffffffffffffffffffffffffffff168152602001908152602001600020549050919050565b600281610f3b91906121df565b600760003373ffffffffffffffffffffffffffffffffffffffff1673ffffffffffffffffffffffffffffffffffffffff1681526020019081526020016000206000828254610f8991906122cb565b925050819055506000600760003373ffffffffffffffffffffffffffffffffffffffff1673ffffffffffffffffffffffffffffffffffffffff168152602001908152602001600020541415610fe257610fe133610a57565b5b610fec3382611678565b50565b606060048054610ffe906120b0565b80601f016020809104026020016040519081016040528092919081815260200182805461102a906120b0565b80156110775780601f1061104c57610100808354040283529160200191611077565b820191906000526020600020905b81548152906001019060200180831161105a57829003601f168201915b5050505050905090565b600080600160006110906114a5565b73ffffffffffffffffffffffffffffffffffffffff1673ffffffffffffffffffffffffffffffffffffffff16815260200190815260200160002060008573ffffffffffffffffffffffffffffffffffffffff1673ffffffffffffffffffffffffffffffffffffffff1681526020019081526020016000205490508281101561114d576040517f08c379a00000000000000000000000000000000000000000000000000000000081526004016111449061240c565b60405180910390fd5b6111616111586114a5565b858584036114ad565b600191505092915050565b60006111806111796114a5565b848461184f565b6001905092915050565b6000806000905060005b60068054905081101561123f5760076000600683815481106111b9576111b86120e2565b5b9060005260206000200160009054906101000a900473ffffffffffffffffffffffffffffffffffffffff1673ffffffffffffffffffffffffffffffffffffffff1673ffffffffffffffffffffffffffffffffffffffff168152602001908152602001600020548261122a9190612140565b9150808061123790612196565b915050611194565b508091505090565b6000600860003373ffffffffffffffffffffffffffffffffffffffff1673ffffffffffffffffffffffffffffffffffffffff1681526020019081526020016000205490506000600860003373ffffffffffffffffffffffffffffffffffffffff1673ffffffffffffffffffffffffffffffffffffffff168152602001908152602001600020819055506112da3382611ad0565b50565b6000600860008373ffffffffffffffffffffffffffffffffffffffff1673ffffffffffffffffffffffffffffffffffffffff168152602001908152602001600020549050919050565b6000600160008473ffffffffffffffffffffffffffffffffffffffff1673ffffffffffffffffffffffffffffffffffffffff16815260200190815260200160002060008373ffffffffffffffffffffffffffffffffffffffff1673ffffffffffffffffffffffffffffffffffffffff16815260200190815260200160002054905092915050565b6113b56114a5565b73ffffffffffffffffffffffffffffffffffffffff166113d3610ebb565b73ffffffffffffffffffffffffffffffffffffffff1614611429576040517f08c379a00000000000000000000000000000000000000000000000000000000081526004016114209061237a565b60405180910390fd5b600073ffffffffffffffffffffffffffffffffffffffff168173ffffffffffffffffffffffffffffffffffffffff161415611499576040517f08c379a00000000000000000000000000000000000000000000000000000000081526004016114909061249e565b60405180910390fd5b6114a281611c46565b50565b600033905090565b600073ffffffffffffffffffffffffffffffffffffffff168373ffffffffffffffffffffffffffffffffffffffff16141561151d576040517f08c379a000000000000000000000000000000000000000000000000000000000815260040161151490612530565b60405180910390fd5b600073ffffffffffffffffffffffffffffffffffffffff168273ffffffffffffffffffffffffffffffffffffffff16141561158d576040517f08c379a0000000000000000000000000000000000000000000000000000000008152600401611584906125c2565b60405180910390fd5b80600160008573ffffffffffffffffffffffffffffffffffffffff1673ffffffffffffffffffffffffffffffffffffffff16815260200190815260200160002060008473ffffffffffffffffffffffffffffffffffffffff1673ffffffffffffffffffffffffffffffffffffffff168152602001908152602001600020819055508173ffffffffffffffffffffffffffffffffffffffff168373ffffffffffffffffffffffffffffffffffffffff167f8c5be1e5ebec7d5bd14f71427d1e84f3dd0314c0f7b2291e5b200ac8c7c3b9258360405161166b9190611eef565b60405180910390a3505050565b600073ffffffffffffffffffffffffffffffffffffffff168273ffffffffffffffffffffffffffffffffffffffff1614156116e8576040517f08c379a00000000000000000000000000000000000000000000000000000000081526004016116df90612654565b60405180910390fd5b6116f482600083611d0c565b60008060008473ffffffffffffffffffffffffffffffffffffffff1673ffffffffffffffffffffffffffffffffffffffff1681526020019081526020016000205490508181101561177a576040517f08c379a0000000000000000000000000000000000000000000000000000000008152600401611771906126e6565b60405180910390fd5b8181036000808573ffffffffffffffffffffffffffffffffffffffff1673ffffffffffffffffffffffffffffffffffffffff1681526020019081526020016000208190555081600260008282546117d191906122cb565b92505081905550600073ffffffffffffffffffffffffffffffffffffffff168373ffffffffffffffffffffffffffffffffffffffff167fddf252ad1be2c89b69c2b068fc378daa952ba7f163c4a11628f55a4df523b3ef846040516118369190611eef565b60405180910390a361184a83600084611d11565b505050565b600073ffffffffffffffffffffffffffffffffffffffff168373ffffffffffffffffffffffffffffffffffffffff1614156118bf576040517f08c379a00000000000000000000000000000000000000000000000000000000081526004016118b690612778565b60405180910390fd5b600073ffffffffffffffffffffffffffffffffffffffff168273ffffffffffffffffffffffffffffffffffffffff16141561192f576040517f08c379a00000000000000000000000000000000000000000000000000000000081526004016119269061280a565b60405180910390fd5b61193a838383611d0c565b60008060008573ffffffffffffffffffffffffffffffffffffffff1673ffffffffffffffffffffffffffffffffffffffff168152602001908152602001600020549050818110156119c0576040517f08c379a00000000000000000000000000000000000000000000000000000000081526004016119b79061289c565b60405180910390fd5b8181036000808673ffffffffffffffffffffffffffffffffffffffff1673ffffffffffffffffffffffffffffffffffffffff16815260200190815260200160002081905550816000808573ffffffffffffffffffffffffffffffffffffffff1673ffffffffffffffffffffffffffffffffffffffff1681526020019081526020016000206000828254611a539190612140565b925050819055508273ffffffffffffffffffffffffffffffffffffffff168473ffffffffffffffffffffffffffffffffffffffff167fddf252ad1be2c89b69c2b068fc378daa952ba7f163c4a11628f55a4df523b3ef84604051611ab79190611eef565b60405180910390a3611aca848484611d11565b50505050565b600073ffffffffffffffffffffffffffffffffffffffff168273ffffffffffffffffffffffffffffffffffffffff161415611b40576040517f08c379a0000000000000000000000000000000000000000000000000000000008152600401611b3790612908565b60405180910390fd5b611b4c60008383611d0c565b8060026000828254611b5e9190612140565b92505081905550806000808473ffffffffffffffffffffffffffffffffffffffff1673ffffffffffffffffffffffffffffffffffffffff1681526020019081526020016000206000828254611bb39190612140565b925050819055508173ffffffffffffffffffffffffffffffffffffffff16600073ffffffffffffffffffffffffffffffffffffffff167fddf252ad1be2c89b69c2b068fc378daa952ba7f163c4a11628f55a4df523b3ef83604051611c189190611eef565b60405180910390a3611c2c60008383611d11565b5050565b60008183611c3e9190612140565b905092915050565b6000600560009054906101000a900473ffffffffffffffffffffffffffffffffffffffff16905081600560006101000a81548173ffffffffffffffffffffffffffffffffffffffff021916908373ffffffffffffffffffffffffffffffffffffffff1602179055508173ffffffffffffffffffffffffffffffffffffffff168173ffffffffffffffffffffffffffffffffffffffff167f8be0079c531659141344cd1fd0a4f28419497f9722a3daafe3b4186f6b6457e060405160405180910390a35050565b505050565b505050565b600081519050919050565b600082825260208201905092915050565b60005b83811015611d50578082015181840152602081019050611d35565b83811115611d5f576000848401525b50505050565b6000601f19601f8301169050919050565b6000611d8182611d16565b611d8b8185611d21565b9350611d9b818560208601611d32565b611da481611d65565b840191505092915050565b60006020820190508181036000830152611dc98184611d76565b905092915050565b600080fd5b600073ffffffffffffffffffffffffffffffffffffffff82169050919050565b6000611e0182611dd6565b9050919050565b611e1181611df6565b8114611e1c57600080fd5b50565b600081359050611e2e81611e08565b92915050565b6000819050919050565b611e4781611e34565b8114611e5257600080fd5b50565b600081359050611e6481611e3e565b92915050565b60008060408385031215611e8157611e80611dd1565b5b6000611e8f85828601611e1f565b9250506020611ea085828601611e55565b9150509250929050565b60008115159050919050565b611ebf81611eaa565b82525050565b6000602082019050611eda6000830184611eb6565b92915050565b611ee981611e34565b82525050565b6000602082019050611f046000830184611ee0565b92915050565b600060208284031215611f2057611f1f611dd1565b5b6000611f2e84828501611e1f565b91505092915050565b600060208284031215611f4d57611f4c611dd1565b5b6000611f5b84828501611e55565b91505092915050565b600080600060608486031215611f7d57611f7c611dd1565b5b6000611f8b86828701611e1f565b9350506020611f9c86828701611e1f565b9250506040611fad86828701611e55565b9150509250925092565b600060ff82169050919050565b611fcd81611fb7565b82525050565b6000602082019050611fe86000830184611fc4565b92915050565b60006040820190506120036000830185611eb6565b6120106020830184611ee0565b9392505050565b61202081611df6565b82525050565b600060208201905061203b6000830184612017565b92915050565b6000806040838503121561205857612057611dd1565b5b600061206685828601611e1f565b925050602061207785828601611e1f565b9150509250929050565b7f4e487b7100000000000000000000000000000000000000000000000000000000600052602260045260246000fd5b600060028204905060018216806120c857607f821691505b602082108114156120dc576120db612081565b5b50919050565b7f4e487b7100000000000000000000000000000000000000000000000000000000600052603260045260246000fd5b7f4e487b7100000000000000000000000000000000000000000000000000000000600052601160045260246000fd5b600061214b82611e34565b915061215683611e34565b9250827fffffffffffffffffffffffffffffffffffffffffffffffffffffffffffffffff0382111561218b5761218a612111565b5b828201905092915050565b60006121a182611e34565b91507fffffffffffffffffffffffffffffffffffffffffffffffffffffffffffffffff8214156121d4576121d3612111565b5b600182019050919050565b60006121ea82611e34565b91506121f583611e34565b9250817fffffffffffffffffffffffffffffffffffffffffffffffffffffffffffffffff048311821515161561222e5761222d612111565b5b828202905092915050565b7f45524332303a207472616e7366657220616d6f756e742065786365656473206160008201527f6c6c6f77616e6365000000000000000000000000000000000000000000000000602082015250565b6000612295602883611d21565b91506122a082612239565b604082019050919050565b600060208201905081810360008301526122c481612288565b9050919050565b60006122d682611e34565b91506122e183611e34565b9250828210156122f4576122f3612111565b5b828203905092915050565b7f4e487b7100000000000000000000000000000000000000000000000000000000600052603160045260246000fd5b7f4f776e61626c653a2063616c6c6572206973206e6f7420746865206f776e6572600082015250565b6000612364602083611d21565b915061236f8261232e565b602082019050919050565b6000602082019050818103600083015261239381612357565b9050919050565b7f45524332303a2064656372656173656420616c6c6f77616e63652062656c6f7760008201527f207a65726f000000000000000000000000000000000000000000000000000000602082015250565b60006123f6602583611d21565b91506124018261239a565b604082019050919050565b60006020820190508181036000830152612425816123e9565b9050919050565b7f4f776e61626c653a206e6577206f776e657220697320746865207a65726f206160008201527f6464726573730000000000000000000000000000000000000000000000000000602082015250565b6000612488602683611d21565b91506124938261242c565b604082019050919050565b600060208201905081810360008301526124b78161247b565b9050919050565b7f45524332303a20617070726f76652066726f6d20746865207a65726f2061646460008201527f7265737300000000000000000000000000000000000000000000000000000000602082015250565b600061251a602483611d21565b9150612525826124be565b604082019050919050565b600060208201905081810360008301526125498161250d565b9050919050565b7f45524332303a20617070726f766520746f20746865207a65726f20616464726560008201527f7373000000000000000000000000000000000000000000000000000000000000602082015250565b60006125ac602283611d21565b91506125b782612550565b604082019050919050565b600060208201905081810360008301526125db8161259f565b9050919050565b7f45524332303a206275726e2066726f6d20746865207a65726f2061646472657360008201527f7300000000000000000000000000000000000000000000000000000000000000602082015250565b600061263e602183611d21565b9150612649826125e2565b604082019050919050565b6000602082019050818103600083015261266d81612631565b9050919050565b7f45524332303a206275726e20616d6f756e7420657863656564732062616c616e60008201527f6365000000000000000000000000000000000000000000000000000000000000602082015250565b60006126d0602283611d21565b91506126db82612674565b604082019050919050565b600060208201905081810360008301526126ff816126c3565b9050919050565b7f45524332303a207472616e736665722066726f6d20746865207a65726f20616460008201527f6472657373000000000000000000000000000000000000000000000000000000602082015250565b6000612762602583611d21565b915061276d82612706565b604082019050919050565b6000602082019050818103600083015261279181612755565b9050919050565b7f45524332303a207472616e7366657220746f20746865207a65726f206164647260008201527f6573730000000000000000000000000000000000000000000000000000000000602082015250565b60006127f4602383611d21565b91506127ff82612798565b604082019050919050565b60006020820190508181036000830152612823816127e7565b9050919050565b7f45524332303a207472616e7366657220616d6f756e742065786365656473206260008201527f616c616e63650000000000000000000000000000000000000000000000000000602082015250565b6000612886602683611d21565b91506128918261282a565b604082019050919050565b600060208201905081810360008301526128b581612879565b9050919050565b7f45524332303a206d696e7420746f20746865207a65726f206164647265737300600082015250565b60006128f2601f83611d21565b91506128fd826128bc565b602082019050919050565b60006020820190508181036000830152612921816128e5565b905091905056fea2646970667358221220767e3ac32d7613b48c0375cfc3f0227b9f18c24f3f8d4b6b0356f182e5fbd3db64736f6c634300080a0033",
  "immutableReferences": {},
  "source": "// SPDX-License-Identifier: MIT\npragma solidity ^0.8;\n\nimport \"../node_modules/openzeppelin-solidity/contracts/token/ERC20/ERC20.sol\";\nimport \"../node_modules/openzeppelin-solidity/contracts/utils/math/SafeMath.sol\";\nimport \"../node_modules/openzeppelin-solidity/contracts/access/Ownable.sol\";\n\ncontract StakingContract is ERC20, Ownable {\n    using SafeMath for uint256;\n\n    constructor(address owner) ERC20(\"TEST\", \"TST\") {\n        _mint(owner, 1000000000000);\n    }\n\n    address[] internal stakeholders;\n\n    mapping(address => uint256) internal stakes;\n\n    mapping(address => uint256) internal rewards;\n\n    uint256 deadline;\n\n    function isStakeHolder(address add) public view returns (bool, uint256) {\n        for (uint256 i = 0; i < stakeholders.length; i++) {\n            if (stakeholders[i] == add) return (true, i);\n        }\n        return (false, 0);\n    }\n\n    function addStakeHolder(address stakeholder) public {\n        (bool isHolder, ) = isStakeHolder(stakeholder);\n        if (!isHolder) stakeholders.push(stakeholder);\n    }\n\n    function removeStakeHolder(address stakeholder) public {\n        (bool isHolder, uint256 pos) = isStakeHolder(stakeholder);\n        if (isHolder) {\n            stakeholders[pos] = stakeholders[stakeholders.length - 1];\n            stakeholders.pop();\n        }\n    }\n\n    function getStakeOfHolder(address stakeholder)\n        public\n        view\n        returns (uint256)\n    {\n        return stakes[stakeholder];\n    }\n\n    function totalStakes() public view returns (uint256) {\n        uint256 total = 0;\n        for (uint256 i = 0; i < stakeholders.length; i++) {\n            total += stakes[stakeholders[i]];\n        }\n        return total;\n    }\n\n    function createStake(uint256 stake) public returns (bool) {\n        // create stake\n        _burn(msg.sender, stake);\n        if (stakes[msg.sender] == 0) addStakeHolder(msg.sender);\n        stakes[msg.sender] += stake * 2;\n        return true;\n    }\n\n    function removeStake(uint256 stake) public {\n        stakes[msg.sender] -= stake * 2;\n        if (stakes[msg.sender] == 0) removeStakeHolder(msg.sender);\n        _burn(msg.sender, stake);\n    }\n\n    function getRewardOf(address holder) public view returns (uint256) {\n        return rewards[holder];\n    }\n\n    function totalRewards() public view returns (uint256) {\n        uint256 total = 0;\n        for (uint256 i = 0; i < stakeholders.length; i++) {\n            total += rewards[stakeholders[i]];\n        }\n        return total;\n    }\n\n    function calculateReward(address stakeholder)\n        public\n        view\n        returns (uint256)\n    {\n        return rewards[stakeholder];\n    }\n\n    function distributeRewards() public onlyOwner {\n        for (uint256 i = 0; i < stakeholders.length; i++) {\n            address stakeholder = stakeholders[i];\n            uint256 reward = calculateReward(stakeholder);\n            rewards[stakeholder] = rewards[stakeholder].add(reward);\n        }\n    }\n\n    function getReward() public {\n        //require(block.timestamp >= now + (7 * 1 days));\n        uint256 reward = rewards[msg.sender];\n        rewards[msg.sender] = 0;\n        _mint(msg.sender, reward);\n    }\n\n    function withdrawRewards() public {\n        uint256 reward = rewards[msg.sender];\n        rewards[msg.sender] = 0;\n        _mint(msg.sender, reward);\n    }\n}\n",
  "sourcePath": "/Users/ciolacucosmin/Projects/staking-app/blockchain/contracts/StakingContract.sol",
  "compiler": {
    "name": "solc",
    "version": "0.8.10+commit.fc410830.Emscripten.clang"
  },
  "schemaVersion": "3.4.4",
  "updatedAt": "2022-02-08T13:06:24.760Z",
  "networkType": "ethereum",
  "devdoc": {
    "kind": "dev",
    "methods": {
      "allowance(address,address)": {
        "details": "See {IERC20-allowance}."
      },
      "approve(address,uint256)": {
        "details": "See {IERC20-approve}. Requirements: - `spender` cannot be the zero address."
      },
      "balanceOf(address)": {
        "details": "See {IERC20-balanceOf}."
      },
      "decimals()": {
        "details": "Returns the number of decimals used to get its user representation. For example, if `decimals` equals `2`, a balance of `505` tokens should be displayed to a user as `5.05` (`505 / 10 ** 2`). Tokens usually opt for a value of 18, imitating the relationship between Ether and Wei. This is the value {ERC20} uses, unless this function is overridden; NOTE: This information is only used for _display_ purposes: it in no way affects any of the arithmetic of the contract, including {IERC20-balanceOf} and {IERC20-transfer}."
      },
      "decreaseAllowance(address,uint256)": {
        "details": "Atomically decreases the allowance granted to `spender` by the caller. This is an alternative to {approve} that can be used as a mitigation for problems described in {IERC20-approve}. Emits an {Approval} event indicating the updated allowance. Requirements: - `spender` cannot be the zero address. - `spender` must have allowance for the caller of at least `subtractedValue`."
      },
      "increaseAllowance(address,uint256)": {
        "details": "Atomically increases the allowance granted to `spender` by the caller. This is an alternative to {approve} that can be used as a mitigation for problems described in {IERC20-approve}. Emits an {Approval} event indicating the updated allowance. Requirements: - `spender` cannot be the zero address."
      },
      "name()": {
        "details": "Returns the name of the token."
      },
      "owner()": {
        "details": "Returns the address of the current owner."
      },
      "renounceOwnership()": {
        "details": "Leaves the contract without owner. It will not be possible to call `onlyOwner` functions anymore. Can only be called by the current owner. NOTE: Renouncing ownership will leave the contract without an owner, thereby removing any functionality that is only available to the owner."
      },
      "symbol()": {
        "details": "Returns the symbol of the token, usually a shorter version of the name."
      },
      "totalSupply()": {
        "details": "See {IERC20-totalSupply}."
      },
      "transfer(address,uint256)": {
        "details": "See {IERC20-transfer}. Requirements: - `recipient` cannot be the zero address. - the caller must have a balance of at least `amount`."
      },
      "transferFrom(address,address,uint256)": {
        "details": "See {IERC20-transferFrom}. Emits an {Approval} event indicating the updated allowance. This is not required by the EIP. See the note at the beginning of {ERC20}. Requirements: - `sender` and `recipient` cannot be the zero address. - `sender` must have a balance of at least `amount`. - the caller must have allowance for ``sender``'s tokens of at least `amount`."
      },
      "transferOwnership(address)": {
        "details": "Transfers ownership of the contract to a new account (`newOwner`). Can only be called by the current owner."
      }
    },
    "version": 1
  },
  "userdoc": {
    "kind": "user",
    "methods": {},
    "version": 1
  }
}