{
  "contractName": "StakingContract",
  "abi": [
    {
      "inputs": [
        {
          "internalType": "address",
          "name": "owner",
          "type": "address"
        }
      ],
      "stateMutability": "nonpayable",
      "type": "constructor"
    },
    {
      "anonymous": false,
      "inputs": [
        {
          "indexed": true,
          "internalType": "address",
          "name": "owner",
          "type": "address"
        },
        {
          "indexed": true,
          "internalType": "address",
          "name": "spender",
          "type": "address"
        },
        {
          "indexed": false,
          "internalType": "uint256",
          "name": "value",
          "type": "uint256"
        }
      ],
      "name": "Approval",
      "type": "event"
    },
    {
      "anonymous": false,
      "inputs": [
        {
          "indexed": true,
          "internalType": "address",
          "name": "previousOwner",
          "type": "address"
        },
        {
          "indexed": true,
          "internalType": "address",
          "name": "newOwner",
          "type": "address"
        }
      ],
      "name": "OwnershipTransferred",
      "type": "event"
    },
    {
      "anonymous": false,
      "inputs": [
        {
          "indexed": true,
          "internalType": "address",
          "name": "from",
          "type": "address"
        },
        {
          "indexed": true,
          "internalType": "address",
          "name": "to",
          "type": "address"
        },
        {
          "indexed": false,
          "internalType": "uint256",
          "name": "value",
          "type": "uint256"
        }
      ],
      "name": "Transfer",
      "type": "event"
    },
    {
      "inputs": [
        {
          "internalType": "address",
          "name": "owner",
          "type": "address"
        },
        {
          "internalType": "address",
          "name": "spender",
          "type": "address"
        }
      ],
      "name": "allowance",
      "outputs": [
        {
          "internalType": "uint256",
          "name": "",
          "type": "uint256"
        }
      ],
      "stateMutability": "view",
      "type": "function"
    },
    {
      "inputs": [
        {
          "internalType": "address",
          "name": "spender",
          "type": "address"
        },
        {
          "internalType": "uint256",
          "name": "amount",
          "type": "uint256"
        }
      ],
      "name": "approve",
      "outputs": [
        {
          "internalType": "bool",
          "name": "",
          "type": "bool"
        }
      ],
      "stateMutability": "nonpayable",
      "type": "function"
    },
    {
      "inputs": [
        {
          "internalType": "address",
          "name": "account",
          "type": "address"
        }
      ],
      "name": "balanceOf",
      "outputs": [
        {
          "internalType": "uint256",
          "name": "",
          "type": "uint256"
        }
      ],
      "stateMutability": "view",
      "type": "function"
    },
    {
      "inputs": [],
      "name": "decimals",
      "outputs": [
        {
          "internalType": "uint8",
          "name": "",
          "type": "uint8"
        }
      ],
      "stateMutability": "view",
      "type": "function"
    },
    {
      "inputs": [
        {
          "internalType": "address",
          "name": "spender",
          "type": "address"
        },
        {
          "internalType": "uint256",
          "name": "subtractedValue",
          "type": "uint256"
        }
      ],
      "name": "decreaseAllowance",
      "outputs": [
        {
          "internalType": "bool",
          "name": "",
          "type": "bool"
        }
      ],
      "stateMutability": "nonpayable",
      "type": "function"
    },
    {
      "inputs": [
        {
          "internalType": "address",
          "name": "spender",
          "type": "address"
        },
        {
          "internalType": "uint256",
          "name": "addedValue",
          "type": "uint256"
        }
      ],
      "name": "increaseAllowance",
      "outputs": [
        {
          "internalType": "bool",
          "name": "",
          "type": "bool"
        }
      ],
      "stateMutability": "nonpayable",
      "type": "function"
    },
    {
      "inputs": [],
      "name": "name",
      "outputs": [
        {
          "internalType": "string",
          "name": "",
          "type": "string"
        }
      ],
      "stateMutability": "view",
      "type": "function"
    },
    {
      "inputs": [],
      "name": "owner",
      "outputs": [
        {
          "internalType": "address",
          "name": "",
          "type": "address"
        }
      ],
      "stateMutability": "view",
      "type": "function"
    },
    {
      "inputs": [],
      "name": "renounceOwnership",
      "outputs": [],
      "stateMutability": "nonpayable",
      "type": "function"
    },
    {
      "inputs": [],
      "name": "symbol",
      "outputs": [
        {
          "internalType": "string",
          "name": "",
          "type": "string"
        }
      ],
      "stateMutability": "view",
      "type": "function"
    },
    {
      "inputs": [],
      "name": "totalSupply",
      "outputs": [
        {
          "internalType": "uint256",
          "name": "",
          "type": "uint256"
        }
      ],
      "stateMutability": "view",
      "type": "function"
    },
    {
      "inputs": [
        {
          "internalType": "address",
          "name": "recipient",
          "type": "address"
        },
        {
          "internalType": "uint256",
          "name": "amount",
          "type": "uint256"
        }
      ],
      "name": "transfer",
      "outputs": [
        {
          "internalType": "bool",
          "name": "",
          "type": "bool"
        }
      ],
      "stateMutability": "nonpayable",
      "type": "function"
    },
    {
      "inputs": [
        {
          "internalType": "address",
          "name": "sender",
          "type": "address"
        },
        {
          "internalType": "address",
          "name": "recipient",
          "type": "address"
        },
        {
          "internalType": "uint256",
          "name": "amount",
          "type": "uint256"
        }
      ],
      "name": "transferFrom",
      "outputs": [
        {
          "internalType": "bool",
          "name": "",
          "type": "bool"
        }
      ],
      "stateMutability": "nonpayable",
      "type": "function"
    },
    {
      "inputs": [
        {
          "internalType": "address",
          "name": "newOwner",
          "type": "address"
        }
      ],
      "name": "transferOwnership",
      "outputs": [],
      "stateMutability": "nonpayable",
      "type": "function"
    },
    {
      "inputs": [
        {
          "internalType": "address",
          "name": "add",
          "type": "address"
        }
      ],
      "name": "isStakeHolder",
      "outputs": [
        {
          "internalType": "bool",
          "name": "",
          "type": "bool"
        },
        {
          "internalType": "uint256",
          "name": "",
          "type": "uint256"
        }
      ],
      "stateMutability": "view",
      "type": "function"
    },
    {
      "inputs": [
        {
          "internalType": "address",
          "name": "stakeholder",
          "type": "address"
        }
      ],
      "name": "addStakeHolder",
      "outputs": [],
      "stateMutability": "nonpayable",
      "type": "function"
    },
    {
      "inputs": [
        {
          "internalType": "address",
          "name": "stakeholder",
          "type": "address"
        }
      ],
      "name": "removeStakeHolder",
      "outputs": [],
      "stateMutability": "nonpayable",
      "type": "function"
    },
    {
      "inputs": [
        {
          "internalType": "address",
          "name": "stakeholder",
          "type": "address"
        }
      ],
      "name": "getStakeOfHolder",
      "outputs": [
        {
          "internalType": "uint256",
          "name": "",
          "type": "uint256"
        }
      ],
      "stateMutability": "view",
      "type": "function"
    },
    {
      "inputs": [],
      "name": "totalStakes",
      "outputs": [
        {
          "internalType": "uint256",
          "name": "",
          "type": "uint256"
        }
      ],
      "stateMutability": "view",
      "type": "function"
    },
    {
      "inputs": [
        {
          "internalType": "uint256",
          "name": "stake",
          "type": "uint256"
        }
      ],
      "name": "createStake",
      "outputs": [],
      "stateMutability": "nonpayable",
      "type": "function"
    },
    {
      "inputs": [
        {
          "internalType": "uint256",
          "name": "stake",
          "type": "uint256"
        }
      ],
      "name": "removeStake",
      "outputs": [],
      "stateMutability": "nonpayable",
      "type": "function"
    },
    {
      "inputs": [
        {
          "internalType": "address",
          "name": "holder",
          "type": "address"
        }
      ],
      "name": "getRewardOf",
      "outputs": [
        {
          "internalType": "uint256",
          "name": "",
          "type": "uint256"
        }
      ],
      "stateMutability": "view",
      "type": "function"
    },
    {
      "inputs": [],
      "name": "totalRewards",
      "outputs": [
        {
          "internalType": "uint256",
          "name": "",
          "type": "uint256"
        }
      ],
      "stateMutability": "view",
      "type": "function"
    },
    {
      "inputs": [
        {
          "internalType": "address",
          "name": "stakeholder",
          "type": "address"
        }
      ],
      "name": "calculateReward",
      "outputs": [
        {
          "internalType": "uint256",
          "name": "",
          "type": "uint256"
        }
      ],
      "stateMutability": "view",
      "type": "function"
    },
    {
      "inputs": [],
      "name": "distributeRewards",
      "outputs": [],
      "stateMutability": "nonpayable",
      "type": "function"
    },
    {
      "inputs": [],
      "name": "getReward",
      "outputs": [],
      "stateMutability": "nonpayable",
      "type": "function"
    },
    {
      "inputs": [],
      "name": "withdrawRewards",
      "outputs": [],
      "stateMutability": "nonpayable",
      "type": "function"
    }
  ],
  "bytecode": "0x60806040523480156200001157600080fd5b5060405162002fb038038062002fb0833981810160405281019062000037919062000480565b6040518060400160405280600481526020017f54455354000000000000000000000000000000000000000000000000000000008152506040518060400160405280600381526020017f54535400000000000000000000000000000000000000000000000000000000008152508160039080519060200190620000bb92919062000366565b508060049080519060200190620000d492919062000366565b505050620000f7620000eb6200011560201b60201c565b6200011d60201b60201c565b6200010e8164e8d4a51000620001e360201b60201c565b506200065e565b600033905090565b6000600560009054906101000a900473ffffffffffffffffffffffffffffffffffffffff16905081600560006101000a81548173ffffffffffffffffffffffffffffffffffffffff021916908373ffffffffffffffffffffffffffffffffffffffff1602179055508173ffffffffffffffffffffffffffffffffffffffff168173ffffffffffffffffffffffffffffffffffffffff167f8be0079c531659141344cd1fd0a4f28419497f9722a3daafe3b4186f6b6457e060405160405180910390a35050565b600073ffffffffffffffffffffffffffffffffffffffff168273ffffffffffffffffffffffffffffffffffffffff16141562000256576040517f08c379a00000000000000000000000000000000000000000000000000000000081526004016200024d9062000513565b60405180910390fd5b6200026a600083836200035c60201b60201c565b80600260008282546200027e91906200056e565b92505081905550806000808473ffffffffffffffffffffffffffffffffffffffff1673ffffffffffffffffffffffffffffffffffffffff1681526020019081526020016000206000828254620002d591906200056e565b925050819055508173ffffffffffffffffffffffffffffffffffffffff16600073ffffffffffffffffffffffffffffffffffffffff167fddf252ad1be2c89b69c2b068fc378daa952ba7f163c4a11628f55a4df523b3ef836040516200033c9190620005dc565b60405180910390a362000358600083836200036160201b60201c565b5050565b505050565b505050565b828054620003749062000628565b90600052602060002090601f016020900481019282620003985760008555620003e4565b82601f10620003b357805160ff1916838001178555620003e4565b82800160010185558215620003e4579182015b82811115620003e3578251825591602001919060010190620003c6565b5b509050620003f39190620003f7565b5090565b5b8082111562000412576000816000905550600101620003f8565b5090565b600080fd5b600073ffffffffffffffffffffffffffffffffffffffff82169050919050565b600062000448826200041b565b9050919050565b6200045a816200043b565b81146200046657600080fd5b50565b6000815190506200047a816200044f565b92915050565b60006020828403121562000499576200049862000416565b5b6000620004a98482850162000469565b91505092915050565b600082825260208201905092915050565b7f45524332303a206d696e7420746f20746865207a65726f206164647265737300600082015250565b6000620004fb601f83620004b2565b91506200050882620004c3565b602082019050919050565b600060208201905081810360008301526200052e81620004ec565b9050919050565b6000819050919050565b7f4e487b7100000000000000000000000000000000000000000000000000000000600052601160045260246000fd5b60006200057b8262000535565b9150620005888362000535565b9250827fffffffffffffffffffffffffffffffffffffffffffffffffffffffffffffffff03821115620005c057620005bf6200053f565b5b828201905092915050565b620005d68162000535565b82525050565b6000602082019050620005f36000830184620005cb565b92915050565b7f4e487b7100000000000000000000000000000000000000000000000000000000600052602260045260246000fd5b600060028204905060018216806200064157607f821691505b60208210811415620006585762000657620005f9565b5b50919050565b612942806200066e6000396000f3fe608060405234801561001057600080fd5b50600436106101a95760003560e01c80636f4a2cd0116100f9578063a457c2d711610097578063c7b8981c11610071578063c7b8981c146104bf578063d82e3962146104c9578063dd62ed3e146104f9578063f2fde38b14610529576101a9565b8063a457c2d714610441578063a9059cbb14610471578063bf9befb1146104a1576101a9565b80638da5cb5b116100d35780638da5cb5b146103b95780639313d505146103d7578063939624ab1461040757806395d89b4114610423576101a9565b80636f4a2cd01461037557806370a082311461037f578063715018a6146103af576101a9565b806323b872dd116101665780633d18b912116101405780633d18b912146102ee57806345f412b0146102f85780634e0138f4146103145780636351215914610344576101a9565b806323b872dd14610270578063313ce567146102a057806339509351146102be576101a9565b806306fdde03146101ae578063095ea7b3146101cc5780630e15561a146101fc57806311a76f371461021a57806318160ddd146102365780631bf6ddae14610254575b600080fd5b6101b6610545565b6040516101c39190611d93565b60405180910390f35b6101e660048036038101906101e19190611e4e565b6105d7565b6040516101f39190611ea9565b60405180910390f35b6102046105f5565b6040516102119190611ed3565b60405180910390f35b610234600480360381019061022f9190611eee565b6106b2565b005b61023e61072d565b60405161024b9190611ed3565b60405180910390f35b61026e60048036038101906102699190611f1b565b610737565b005b61028a60048036038101906102859190611f48565b6107f8565b6040516102979190611ea9565b60405180910390f35b6102a86108f0565b6040516102b59190611fb7565b60405180910390f35b6102d860048036038101906102d39190611e4e565b6108f9565b6040516102e59190611ea9565b60405180910390f35b6102f66109a5565b005b610312600480360381019061030d9190611eee565b610a3b565b005b61032e60048036038101906103299190611eee565b610b4a565b60405161033b9190611ed3565b60405180910390f35b61035e60048036038101906103599190611eee565b610b93565b60405161036c929190611fd2565b60405180910390f35b61037d610c46565b005b61039960048036038101906103949190611eee565b610dcf565b6040516103a69190611ed3565b60405180910390f35b6103b7610e17565b005b6103c1610e9f565b6040516103ce919061200a565b60405180910390f35b6103f160048036038101906103ec9190611eee565b610ec9565b6040516103fe9190611ed3565b60405180910390f35b610421600480360381019061041c9190611f1b565b610f12565b005b61042b610fd3565b6040516104389190611d93565b60405180910390f35b61045b60048036038101906104569190611e4e565b611065565b6040516104689190611ea9565b60405180910390f35b61048b60048036038101906104869190611e4e565b611150565b6040516104989190611ea9565b60405180910390f35b6104a961116e565b6040516104b69190611ed3565b60405180910390f35b6104c761122b565b005b6104e360048036038101906104de9190611eee565b6112c1565b6040516104f09190611ed3565b60405180910390f35b610513600480360381019061050e9190612025565b61130a565b6040516105209190611ed3565b60405180910390f35b610543600480360381019061053e9190611eee565b611391565b005b60606003805461055490612094565b80601f016020809104026020016040519081016040528092919081815260200182805461058090612094565b80156105cd5780601f106105a2576101008083540402835291602001916105cd565b820191906000526020600020905b8154815290600101906020018083116105b057829003601f168201915b5050505050905090565b60006105eb6105e4611489565b8484611491565b6001905092915050565b6000806000905060005b6006805490508110156106aa576008600060068381548110610624576106236120c6565b5b9060005260206000200160009054906101000a900473ffffffffffffffffffffffffffffffffffffffff1673ffffffffffffffffffffffffffffffffffffffff1673ffffffffffffffffffffffffffffffffffffffff16815260200190815260200160002054826106959190612124565b915080806106a29061217a565b9150506105ff565b508091505090565b60006106bd82610b93565b50905080610729576006829080600181540180825580915050600190039060005260206000200160009091909190916101000a81548173ffffffffffffffffffffffffffffffffffffffff021916908373ffffffffffffffffffffffffffffffffffffffff1602179055505b5050565b6000600254905090565b610741338261165c565b6000600760003373ffffffffffffffffffffffffffffffffffffffff1673ffffffffffffffffffffffffffffffffffffffff16815260200190815260200160002054141561079357610792336106b2565b5b6002816107a091906121c3565b600760003373ffffffffffffffffffffffffffffffffffffffff1673ffffffffffffffffffffffffffffffffffffffff16815260200190815260200160002060008282546107ee9190612124565b9250508190555050565b6000610805848484611833565b6000600160008673ffffffffffffffffffffffffffffffffffffffff1673ffffffffffffffffffffffffffffffffffffffff1681526020019081526020016000206000610850611489565b73ffffffffffffffffffffffffffffffffffffffff1673ffffffffffffffffffffffffffffffffffffffff168152602001908152602001600020549050828110156108d0576040517f08c379a00000000000000000000000000000000000000000000000000000000081526004016108c79061228f565b60405180910390fd5b6108e4856108dc611489565b858403611491565b60019150509392505050565b60006012905090565b600061099b610906611489565b848460016000610914611489565b73ffffffffffffffffffffffffffffffffffffffff1673ffffffffffffffffffffffffffffffffffffffff16815260200190815260200160002060008873ffffffffffffffffffffffffffffffffffffffff1673ffffffffffffffffffffffffffffffffffffffff168152602001908152602001600020546109969190612124565b611491565b6001905092915050565b6000600860003373ffffffffffffffffffffffffffffffffffffffff1673ffffffffffffffffffffffffffffffffffffffff1681526020019081526020016000205490506000600860003373ffffffffffffffffffffffffffffffffffffffff1673ffffffffffffffffffffffffffffffffffffffff16815260200190815260200160002081905550610a383382611ab4565b50565b600080610a4783610b93565b915091508115610b455760066001600680549050610a6591906122af565b81548110610a7657610a756120c6565b5b9060005260206000200160009054906101000a900473ffffffffffffffffffffffffffffffffffffffff1660068281548110610ab557610ab46120c6565b5b9060005260206000200160006101000a81548173ffffffffffffffffffffffffffffffffffffffff021916908373ffffffffffffffffffffffffffffffffffffffff1602179055506006805480610b0f57610b0e6122e3565b5b6001900381819060005260206000200160006101000a81549073ffffffffffffffffffffffffffffffffffffffff021916905590555b505050565b6000600760008373ffffffffffffffffffffffffffffffffffffffff1673ffffffffffffffffffffffffffffffffffffffff168152602001908152602001600020549050919050565b60008060005b600680549050811015610c38578373ffffffffffffffffffffffffffffffffffffffff1660068281548110610bd157610bd06120c6565b5b9060005260206000200160009054906101000a900473ffffffffffffffffffffffffffffffffffffffff1673ffffffffffffffffffffffffffffffffffffffff161415610c25576001819250925050610c41565b8080610c309061217a565b915050610b99565b50600080915091505b915091565b610c4e611489565b73ffffffffffffffffffffffffffffffffffffffff16610c6c610e9f565b73ffffffffffffffffffffffffffffffffffffffff1614610cc2576040517f08c379a0000000000000000000000000000000000000000000000000000000008152600401610cb99061235e565b60405180910390fd5b60005b600680549050811015610dcc57600060068281548110610ce857610ce76120c6565b5b9060005260206000200160009054906101000a900473ffffffffffffffffffffffffffffffffffffffff1690506000610d20826112c1565b9050610d7481600860008573ffffffffffffffffffffffffffffffffffffffff1673ffffffffffffffffffffffffffffffffffffffff16815260200190815260200160002054611c1490919063ffffffff16565b600860008473ffffffffffffffffffffffffffffffffffffffff1673ffffffffffffffffffffffffffffffffffffffff1681526020019081526020016000208190555050508080610dc49061217a565b915050610cc5565b50565b60008060008373ffffffffffffffffffffffffffffffffffffffff1673ffffffffffffffffffffffffffffffffffffffff168152602001908152602001600020549050919050565b610e1f611489565b73ffffffffffffffffffffffffffffffffffffffff16610e3d610e9f565b73ffffffffffffffffffffffffffffffffffffffff1614610e93576040517f08c379a0000000000000000000000000000000000000000000000000000000008152600401610e8a9061235e565b60405180910390fd5b610e9d6000611c2a565b565b6000600560009054906101000a900473ffffffffffffffffffffffffffffffffffffffff16905090565b6000600860008373ffffffffffffffffffffffffffffffffffffffff1673ffffffffffffffffffffffffffffffffffffffff168152602001908152602001600020549050919050565b600281610f1f91906121c3565b600760003373ffffffffffffffffffffffffffffffffffffffff1673ffffffffffffffffffffffffffffffffffffffff1681526020019081526020016000206000828254610f6d91906122af565b925050819055506000600760003373ffffffffffffffffffffffffffffffffffffffff1673ffffffffffffffffffffffffffffffffffffffff168152602001908152602001600020541415610fc657610fc533610a3b565b5b610fd0338261165c565b50565b606060048054610fe290612094565b80601f016020809104026020016040519081016040528092919081815260200182805461100e90612094565b801561105b5780601f106110305761010080835404028352916020019161105b565b820191906000526020600020905b81548152906001019060200180831161103e57829003601f168201915b5050505050905090565b60008060016000611074611489565b73ffffffffffffffffffffffffffffffffffffffff1673ffffffffffffffffffffffffffffffffffffffff16815260200190815260200160002060008573ffffffffffffffffffffffffffffffffffffffff1673ffffffffffffffffffffffffffffffffffffffff16815260200190815260200160002054905082811015611131576040517f08c379a0000000000000000000000000000000000000000000000000000000008152600401611128906123f0565b60405180910390fd5b61114561113c611489565b85858403611491565b600191505092915050565b600061116461115d611489565b8484611833565b6001905092915050565b6000806000905060005b60068054905081101561122357600760006006838154811061119d5761119c6120c6565b5b9060005260206000200160009054906101000a900473ffffffffffffffffffffffffffffffffffffffff1673ffffffffffffffffffffffffffffffffffffffff1673ffffffffffffffffffffffffffffffffffffffff168152602001908152602001600020548261120e9190612124565b9150808061121b9061217a565b915050611178565b508091505090565b6000600860003373ffffffffffffffffffffffffffffffffffffffff1673ffffffffffffffffffffffffffffffffffffffff1681526020019081526020016000205490506000600860003373ffffffffffffffffffffffffffffffffffffffff1673ffffffffffffffffffffffffffffffffffffffff168152602001908152602001600020819055506112be3382611ab4565b50565b6000600860008373ffffffffffffffffffffffffffffffffffffffff1673ffffffffffffffffffffffffffffffffffffffff168152602001908152602001600020549050919050565b6000600160008473ffffffffffffffffffffffffffffffffffffffff1673ffffffffffffffffffffffffffffffffffffffff16815260200190815260200160002060008373ffffffffffffffffffffffffffffffffffffffff1673ffffffffffffffffffffffffffffffffffffffff16815260200190815260200160002054905092915050565b611399611489565b73ffffffffffffffffffffffffffffffffffffffff166113b7610e9f565b73ffffffffffffffffffffffffffffffffffffffff161461140d576040517f08c379a00000000000000000000000000000000000000000000000000000000081526004016114049061235e565b60405180910390fd5b600073ffffffffffffffffffffffffffffffffffffffff168173ffffffffffffffffffffffffffffffffffffffff16141561147d576040517f08c379a000000000000000000000000000000000000000000000000000000000815260040161147490612482565b60405180910390fd5b61148681611c2a565b50565b600033905090565b600073ffffffffffffffffffffffffffffffffffffffff168373ffffffffffffffffffffffffffffffffffffffff161415611501576040517f08c379a00000000000000000000000000000000000000000000000000000000081526004016114f890612514565b60405180910390fd5b600073ffffffffffffffffffffffffffffffffffffffff168273ffffffffffffffffffffffffffffffffffffffff161415611571576040517f08c379a0000000000000000000000000000000000000000000000000000000008152600401611568906125a6565b60405180910390fd5b80600160008573ffffffffffffffffffffffffffffffffffffffff1673ffffffffffffffffffffffffffffffffffffffff16815260200190815260200160002060008473ffffffffffffffffffffffffffffffffffffffff1673ffffffffffffffffffffffffffffffffffffffff168152602001908152602001600020819055508173ffffffffffffffffffffffffffffffffffffffff168373ffffffffffffffffffffffffffffffffffffffff167f8c5be1e5ebec7d5bd14f71427d1e84f3dd0314c0f7b2291e5b200ac8c7c3b9258360405161164f9190611ed3565b60405180910390a3505050565b600073ffffffffffffffffffffffffffffffffffffffff168273ffffffffffffffffffffffffffffffffffffffff1614156116cc576040517f08c379a00000000000000000000000000000000000000000000000000000000081526004016116c390612638565b60405180910390fd5b6116d882600083611cf0565b60008060008473ffffffffffffffffffffffffffffffffffffffff1673ffffffffffffffffffffffffffffffffffffffff1681526020019081526020016000205490508181101561175e576040517f08c379a0000000000000000000000000000000000000000000000000000000008152600401611755906126ca565b60405180910390fd5b8181036000808573ffffffffffffffffffffffffffffffffffffffff1673ffffffffffffffffffffffffffffffffffffffff1681526020019081526020016000208190555081600260008282546117b591906122af565b92505081905550600073ffffffffffffffffffffffffffffffffffffffff168373ffffffffffffffffffffffffffffffffffffffff167fddf252ad1be2c89b69c2b068fc378daa952ba7f163c4a11628f55a4df523b3ef8460405161181a9190611ed3565b60405180910390a361182e83600084611cf5565b505050565b600073ffffffffffffffffffffffffffffffffffffffff168373ffffffffffffffffffffffffffffffffffffffff1614156118a3576040517f08c379a000000000000000000000000000000000000000000000000000000000815260040161189a9061275c565b60405180910390fd5b600073ffffffffffffffffffffffffffffffffffffffff168273ffffffffffffffffffffffffffffffffffffffff161415611913576040517f08c379a000000000000000000000000000000000000000000000000000000000815260040161190a906127ee565b60405180910390fd5b61191e838383611cf0565b60008060008573ffffffffffffffffffffffffffffffffffffffff1673ffffffffffffffffffffffffffffffffffffffff168152602001908152602001600020549050818110156119a4576040517f08c379a000000000000000000000000000000000000000000000000000000000815260040161199b90612880565b60405180910390fd5b8181036000808673ffffffffffffffffffffffffffffffffffffffff1673ffffffffffffffffffffffffffffffffffffffff16815260200190815260200160002081905550816000808573ffffffffffffffffffffffffffffffffffffffff1673ffffffffffffffffffffffffffffffffffffffff1681526020019081526020016000206000828254611a379190612124565b925050819055508273ffffffffffffffffffffffffffffffffffffffff168473ffffffffffffffffffffffffffffffffffffffff167fddf252ad1be2c89b69c2b068fc378daa952ba7f163c4a11628f55a4df523b3ef84604051611a9b9190611ed3565b60405180910390a3611aae848484611cf5565b50505050565b600073ffffffffffffffffffffffffffffffffffffffff168273ffffffffffffffffffffffffffffffffffffffff161415611b24576040517f08c379a0000000000000000000000000000000000000000000000000000000008152600401611b1b906128ec565b60405180910390fd5b611b3060008383611cf0565b8060026000828254611b429190612124565b92505081905550806000808473ffffffffffffffffffffffffffffffffffffffff1673ffffffffffffffffffffffffffffffffffffffff1681526020019081526020016000206000828254611b979190612124565b925050819055508173ffffffffffffffffffffffffffffffffffffffff16600073ffffffffffffffffffffffffffffffffffffffff167fddf252ad1be2c89b69c2b068fc378daa952ba7f163c4a11628f55a4df523b3ef83604051611bfc9190611ed3565b60405180910390a3611c1060008383611cf5565b5050565b60008183611c229190612124565b905092915050565b6000600560009054906101000a900473ffffffffffffffffffffffffffffffffffffffff16905081600560006101000a81548173ffffffffffffffffffffffffffffffffffffffff021916908373ffffffffffffffffffffffffffffffffffffffff1602179055508173ffffffffffffffffffffffffffffffffffffffff168173ffffffffffffffffffffffffffffffffffffffff167f8be0079c531659141344cd1fd0a4f28419497f9722a3daafe3b4186f6b6457e060405160405180910390a35050565b505050565b505050565b600081519050919050565b600082825260208201905092915050565b60005b83811015611d34578082015181840152602081019050611d19565b83811115611d43576000848401525b50505050565b6000601f19601f8301169050919050565b6000611d6582611cfa565b611d6f8185611d05565b9350611d7f818560208601611d16565b611d8881611d49565b840191505092915050565b60006020820190508181036000830152611dad8184611d5a565b905092915050565b600080fd5b600073ffffffffffffffffffffffffffffffffffffffff82169050919050565b6000611de582611dba565b9050919050565b611df581611dda565b8114611e0057600080fd5b50565b600081359050611e1281611dec565b92915050565b6000819050919050565b611e2b81611e18565b8114611e3657600080fd5b50565b600081359050611e4881611e22565b92915050565b60008060408385031215611e6557611e64611db5565b5b6000611e7385828601611e03565b9250506020611e8485828601611e39565b9150509250929050565b60008115159050919050565b611ea381611e8e565b82525050565b6000602082019050611ebe6000830184611e9a565b92915050565b611ecd81611e18565b82525050565b6000602082019050611ee86000830184611ec4565b92915050565b600060208284031215611f0457611f03611db5565b5b6000611f1284828501611e03565b91505092915050565b600060208284031215611f3157611f30611db5565b5b6000611f3f84828501611e39565b91505092915050565b600080600060608486031215611f6157611f60611db5565b5b6000611f6f86828701611e03565b9350506020611f8086828701611e03565b9250506040611f9186828701611e39565b9150509250925092565b600060ff82169050919050565b611fb181611f9b565b82525050565b6000602082019050611fcc6000830184611fa8565b92915050565b6000604082019050611fe76000830185611e9a565b611ff46020830184611ec4565b9392505050565b61200481611dda565b82525050565b600060208201905061201f6000830184611ffb565b92915050565b6000806040838503121561203c5761203b611db5565b5b600061204a85828601611e03565b925050602061205b85828601611e03565b9150509250929050565b7f4e487b7100000000000000000000000000000000000000000000000000000000600052602260045260246000fd5b600060028204905060018216806120ac57607f821691505b602082108114156120c0576120bf612065565b5b50919050565b7f4e487b7100000000000000000000000000000000000000000000000000000000600052603260045260246000fd5b7f4e487b7100000000000000000000000000000000000000000000000000000000600052601160045260246000fd5b600061212f82611e18565b915061213a83611e18565b9250827fffffffffffffffffffffffffffffffffffffffffffffffffffffffffffffffff0382111561216f5761216e6120f5565b5b828201905092915050565b600061218582611e18565b91507fffffffffffffffffffffffffffffffffffffffffffffffffffffffffffffffff8214156121b8576121b76120f5565b5b600182019050919050565b60006121ce82611e18565b91506121d983611e18565b9250817fffffffffffffffffffffffffffffffffffffffffffffffffffffffffffffffff0483118215151615612212576122116120f5565b5b828202905092915050565b7f45524332303a207472616e7366657220616d6f756e742065786365656473206160008201527f6c6c6f77616e6365000000000000000000000000000000000000000000000000602082015250565b6000612279602883611d05565b91506122848261221d565b604082019050919050565b600060208201905081810360008301526122a88161226c565b9050919050565b60006122ba82611e18565b91506122c583611e18565b9250828210156122d8576122d76120f5565b5b828203905092915050565b7f4e487b7100000000000000000000000000000000000000000000000000000000600052603160045260246000fd5b7f4f776e61626c653a2063616c6c6572206973206e6f7420746865206f776e6572600082015250565b6000612348602083611d05565b915061235382612312565b602082019050919050565b600060208201905081810360008301526123778161233b565b9050919050565b7f45524332303a2064656372656173656420616c6c6f77616e63652062656c6f7760008201527f207a65726f000000000000000000000000000000000000000000000000000000602082015250565b60006123da602583611d05565b91506123e58261237e565b604082019050919050565b60006020820190508181036000830152612409816123cd565b9050919050565b7f4f776e61626c653a206e6577206f776e657220697320746865207a65726f206160008201527f6464726573730000000000000000000000000000000000000000000000000000602082015250565b600061246c602683611d05565b915061247782612410565b604082019050919050565b6000602082019050818103600083015261249b8161245f565b9050919050565b7f45524332303a20617070726f76652066726f6d20746865207a65726f2061646460008201527f7265737300000000000000000000000000000000000000000000000000000000602082015250565b60006124fe602483611d05565b9150612509826124a2565b604082019050919050565b6000602082019050818103600083015261252d816124f1565b9050919050565b7f45524332303a20617070726f766520746f20746865207a65726f20616464726560008201527f7373000000000000000000000000000000000000000000000000000000000000602082015250565b6000612590602283611d05565b915061259b82612534565b604082019050919050565b600060208201905081810360008301526125bf81612583565b9050919050565b7f45524332303a206275726e2066726f6d20746865207a65726f2061646472657360008201527f7300000000000000000000000000000000000000000000000000000000000000602082015250565b6000612622602183611d05565b915061262d826125c6565b604082019050919050565b6000602082019050818103600083015261265181612615565b9050919050565b7f45524332303a206275726e20616d6f756e7420657863656564732062616c616e60008201527f6365000000000000000000000000000000000000000000000000000000000000602082015250565b60006126b4602283611d05565b91506126bf82612658565b604082019050919050565b600060208201905081810360008301526126e3816126a7565b9050919050565b7f45524332303a207472616e736665722066726f6d20746865207a65726f20616460008201527f6472657373000000000000000000000000000000000000000000000000000000602082015250565b6000612746602583611d05565b9150612751826126ea565b604082019050919050565b6000602082019050818103600083015261277581612739565b9050919050565b7f45524332303a207472616e7366657220746f20746865207a65726f206164647260008201527f6573730000000000000000000000000000000000000000000000000000000000602082015250565b60006127d8602383611d05565b91506127e38261277c565b604082019050919050565b60006020820190508181036000830152612807816127cb565b9050919050565b7f45524332303a207472616e7366657220616d6f756e742065786365656473206260008201527f616c616e63650000000000000000000000000000000000000000000000000000602082015250565b600061286a602683611d05565b91506128758261280e565b604082019050919050565b600060208201905081810360008301526128998161285d565b9050919050565b7f45524332303a206d696e7420746f20746865207a65726f206164647265737300600082015250565b60006128d6601f83611d05565b91506128e1826128a0565b602082019050919050565b60006020820190508181036000830152612905816128c9565b905091905056fea2646970667358221220e5ec3d5e111ac6967ec1181a43ea6fae780a8b565667b69604965b4028aede9764736f6c634300080a0033",
  "immutableReferences": {},
  "source": "// SPDX-License-Identifier: MIT\npragma solidity ^0.8;\n\nimport \"../node_modules/openzeppelin-solidity/contracts/token/ERC20/ERC20.sol\";\nimport \"../node_modules/openzeppelin-solidity/contracts/utils/math/SafeMath.sol\";\nimport \"../node_modules/openzeppelin-solidity/contracts/access/Ownable.sol\";\n\ncontract StakingContract is ERC20, Ownable {\n    using SafeMath for uint256;\n\n    constructor(address owner) ERC20(\"TEST\", \"TST\") {\n        _mint(owner, 1000000000000);\n    }\n\n    address[] internal stakeholders;\n\n    mapping(address => uint256) internal stakes;\n\n    mapping(address => uint256) internal rewards;\n\n    uint256 deadline;\n\n    function isStakeHolder(address add) public view returns (bool, uint256) {\n        for (uint256 i = 0; i < stakeholders.length; i++) {\n            if (stakeholders[i] == add) return (true, i);\n        }\n        return (false, 0);\n    }\n\n    function addStakeHolder(address stakeholder) public {\n        (bool isHolder, ) = isStakeHolder(stakeholder);\n        if (!isHolder) stakeholders.push(stakeholder);\n    }\n\n    function removeStakeHolder(address stakeholder) public {\n        (bool isHolder, uint256 pos) = isStakeHolder(stakeholder);\n        if (isHolder) {\n            stakeholders[pos] = stakeholders[stakeholders.length - 1];\n            stakeholders.pop();\n        }\n    }\n\n    function getStakeOfHolder(address stakeholder)\n        public\n        view\n        returns (uint256)\n    {\n        return stakes[stakeholder];\n    }\n\n    function totalStakes() public view returns (uint256) {\n        uint256 total = 0;\n        for (uint256 i = 0; i < stakeholders.length; i++) {\n            total += stakes[stakeholders[i]];\n        }\n        return total;\n    }\n\n    function createStake(uint256 stake) public {\n        // create stake\n        _burn(msg.sender, stake);\n        if (stakes[msg.sender] == 0) addStakeHolder(msg.sender);\n        stakes[msg.sender] += stake * 2;\n    }\n\n    function removeStake(uint256 stake) public {\n        stakes[msg.sender] -= stake * 2;\n        if (stakes[msg.sender] == 0) removeStakeHolder(msg.sender);\n        _burn(msg.sender, stake);\n    }\n\n    function getRewardOf(address holder) public view returns (uint256) {\n        return rewards[holder];\n    }\n\n    function totalRewards() public view returns (uint256) {\n        uint256 total = 0;\n        for (uint256 i = 0; i < stakeholders.length; i++) {\n            total += rewards[stakeholders[i]];\n        }\n        return total;\n    }\n\n    function calculateReward(address stakeholder)\n        public\n        view\n        returns (uint256)\n    {\n        return rewards[stakeholder];\n    }\n\n    function distributeRewards() public onlyOwner {\n        for (uint256 i = 0; i < stakeholders.length; i++) {\n            address stakeholder = stakeholders[i];\n            uint256 reward = calculateReward(stakeholder);\n            rewards[stakeholder] = rewards[stakeholder].add(reward);\n        }\n    }\n\n    function getReward() public {\n        //require(block.timestamp >= now + (7 * 1 days));\n        uint256 reward = rewards[msg.sender];\n        rewards[msg.sender] = 0;\n        _mint(msg.sender, reward);\n    }\n\n    function withdrawRewards() public {\n        uint256 reward = rewards[msg.sender];\n        rewards[msg.sender] = 0;\n        _mint(msg.sender, reward);\n    }\n}\n",
  "sourcePath": "/Users/ciolacucosmin/Projects/staking-app/blockchain/contracts/StakingContract.sol",
  "compiler": {
    "name": "solc",
    "version": "0.8.10+commit.fc410830.Emscripten.clang"
  },
  "schemaVersion": "3.4.4",
  "updatedAt": "2022-02-07T09:56:21.114Z",
  "devdoc": {
    "kind": "dev",
    "methods": {
      "allowance(address,address)": {
        "details": "See {IERC20-allowance}."
      },
      "approve(address,uint256)": {
        "details": "See {IERC20-approve}. Requirements: - `spender` cannot be the zero address."
      },
      "balanceOf(address)": {
        "details": "See {IERC20-balanceOf}."
      },
      "decimals()": {
        "details": "Returns the number of decimals used to get its user representation. For example, if `decimals` equals `2`, a balance of `505` tokens should be displayed to a user as `5.05` (`505 / 10 ** 2`). Tokens usually opt for a value of 18, imitating the relationship between Ether and Wei. This is the value {ERC20} uses, unless this function is overridden; NOTE: This information is only used for _display_ purposes: it in no way affects any of the arithmetic of the contract, including {IERC20-balanceOf} and {IERC20-transfer}."
      },
      "decreaseAllowance(address,uint256)": {
        "details": "Atomically decreases the allowance granted to `spender` by the caller. This is an alternative to {approve} that can be used as a mitigation for problems described in {IERC20-approve}. Emits an {Approval} event indicating the updated allowance. Requirements: - `spender` cannot be the zero address. - `spender` must have allowance for the caller of at least `subtractedValue`."
      },
      "increaseAllowance(address,uint256)": {
        "details": "Atomically increases the allowance granted to `spender` by the caller. This is an alternative to {approve} that can be used as a mitigation for problems described in {IERC20-approve}. Emits an {Approval} event indicating the updated allowance. Requirements: - `spender` cannot be the zero address."
      },
      "name()": {
        "details": "Returns the name of the token."
      },
      "owner()": {
        "details": "Returns the address of the current owner."
      },
      "renounceOwnership()": {
        "details": "Leaves the contract without owner. It will not be possible to call `onlyOwner` functions anymore. Can only be called by the current owner. NOTE: Renouncing ownership will leave the contract without an owner, thereby removing any functionality that is only available to the owner."
      },
      "symbol()": {
        "details": "Returns the symbol of the token, usually a shorter version of the name."
      },
      "totalSupply()": {
        "details": "See {IERC20-totalSupply}."
      },
      "transfer(address,uint256)": {
        "details": "See {IERC20-transfer}. Requirements: - `recipient` cannot be the zero address. - the caller must have a balance of at least `amount`."
      },
      "transferFrom(address,address,uint256)": {
        "details": "See {IERC20-transferFrom}. Emits an {Approval} event indicating the updated allowance. This is not required by the EIP. See the note at the beginning of {ERC20}. Requirements: - `sender` and `recipient` cannot be the zero address. - `sender` must have a balance of at least `amount`. - the caller must have allowance for ``sender``'s tokens of at least `amount`."
      },
      "transferOwnership(address)": {
        "details": "Transfers ownership of the contract to a new account (`newOwner`). Can only be called by the current owner."
      }
    },
    "version": 1
  },
  "userdoc": {
    "kind": "user",
    "methods": {},
    "version": 1
  }
}